{
  "_format": "hh-sol-artifact-1",
  "contractName": "WeatherInsurance",
  "sourceName": "contracts/WeatherInsurance.sol",
  "abi": [
    {
      "inputs": [],
      "stateMutability": "nonpayable",
      "type": "constructor"
    },
    {
      "inputs": [
        {
          "internalType": "uint256",
          "name": "duration",
          "type": "uint256"
        },
        {
          "internalType": "uint256",
          "name": "payout",
          "type": "uint256"
        },
        {
          "internalType": "int256",
          "name": "threshold",
          "type": "int256"
        },
        {
          "internalType": "string",
          "name": "eventType",
          "type": "string"
        }
      ],
      "name": "buyPolicy",
      "outputs": [],
      "stateMutability": "payable",
      "type": "function"
    },
    {
      "inputs": [],
      "name": "owner",
      "outputs": [
        {
          "internalType": "address",
          "name": "",
          "type": "address"
        }
      ],
      "stateMutability": "view",
      "type": "function"
    },
    {
      "inputs": [
        {
          "internalType": "uint256",
          "name": "",
          "type": "uint256"
        }
      ],
      "name": "policies",
      "outputs": [
        {
          "internalType": "address",
          "name": "user",
          "type": "address"
        },
        {
          "internalType": "uint256",
          "name": "payout",
          "type": "uint256"
        },
        {
          "internalType": "uint256",
          "name": "startTime",
          "type": "uint256"
        },
        {
          "internalType": "uint256",
          "name": "endTime",
          "type": "uint256"
        },
        {
          "internalType": "bool",
          "name": "paid",
          "type": "bool"
        },
        {
          "internalType": "int256",
          "name": "threshold",
          "type": "int256"
        },
        {
          "internalType": "string",
          "name": "eventType",
          "type": "string"
        }
      ],
      "stateMutability": "view",
      "type": "function"
    },
    {
      "inputs": [],
      "name": "policyCount",
      "outputs": [
        {
          "internalType": "uint256",
          "name": "",
          "type": "uint256"
        }
      ],
      "stateMutability": "view",
      "type": "function"
    },
    {
      "inputs": [
        {
          "internalType": "uint256",
          "name": "policyId",
          "type": "uint256"
        },
        {
          "internalType": "int256",
          "name": "observed",
          "type": "int256"
        }
      ],
      "name": "trigger",
      "outputs": [],
      "stateMutability": "nonpayable",
      "type": "function"
    }
  ],
  "bytecode": "0x60806040526000600255348015601457600080fd5b50336000806101000a81548173ffffffffffffffffffffffffffffffffffffffff021916908373ffffffffffffffffffffffffffffffffffffffff16021790555061101f806100646000396000f3fe60806040526004361061004a5760003560e01c80631d7b07fd1461004f5780631d93feb6146100785780638da5cb5b14610094578063d3e89483146100bf578063de54d42914610102575b600080fd5b34801561005b57600080fd5b5061007660048036038101906100719190610627565b61012d565b005b610092600480360381019061008d91906107ad565b610305565b005b3480156100a057600080fd5b506100a9610486565b6040516100b69190610871565b60405180910390f35b3480156100cb57600080fd5b506100e660048036038101906100e1919061088c565b6104aa565b6040516100f99796959493929190610971565b60405180910390f35b34801561010e57600080fd5b506101176105a1565b60405161012491906109e7565b60405180910390f35b60006001600084815260200190815260200160002090508060040160009054906101000a900460ff1615610196576040517f08c379a000000000000000000000000000000000000000000000000000000000815260040161018d90610a4e565b60405180910390fd5b60008054906101000a900473ffffffffffffffffffffffffffffffffffffffff1673ffffffffffffffffffffffffffffffffffffffff163373ffffffffffffffffffffffffffffffffffffffff1614610224576040517f08c379a000000000000000000000000000000000000000000000000000000000815260040161021b90610aba565b60405180910390fd5b7fcaa9addfde811d0305f24135a586ff54e0020d59b3c74d98b0645d150387cbbe816006016040516102569190610bdd565b604051809103902014801561026e5750806005015482125b156102e3578060000160009054906101000a900473ffffffffffffffffffffffffffffffffffffffff1673ffffffffffffffffffffffffffffffffffffffff166108fc82600101549081150290604051600060405180830381858888f193505050501580156102e1573d6000803e3d6000fd5b505b60018160040160006101000a81548160ff021916908315150217905550505050565b600a836103129190610c52565b341015610354576040517f08c379a000000000000000000000000000000000000000000000000000000000815260040161034b90610ccf565b60405180910390fd5b6040518060e001604052803373ffffffffffffffffffffffffffffffffffffffff16815260200184815260200142815260200185426103939190610cef565b81526020016000151581526020018381526020018281525060016000600254815260200190815260200160002060008201518160000160006101000a81548173ffffffffffffffffffffffffffffffffffffffff021916908373ffffffffffffffffffffffffffffffffffffffff16021790555060208201518160010155604082015181600201556060820151816003015560808201518160040160006101000a81548160ff02191690831515021790555060a0820151816005015560c08201518160060190816104649190610ecf565b509050506002600081548092919061047b90610fa1565b919050555050505050565b60008054906101000a900473ffffffffffffffffffffffffffffffffffffffff1681565b60016020528060005260406000206000915090508060000160009054906101000a900473ffffffffffffffffffffffffffffffffffffffff16908060010154908060020154908060030154908060040160009054906101000a900460ff169080600501549080600601805461051e90610b09565b80601f016020809104026020016040519081016040528092919081815260200182805461054a90610b09565b80156105975780601f1061056c57610100808354040283529160200191610597565b820191906000526020600020905b81548152906001019060200180831161057a57829003601f168201915b5050505050905087565b60025481565b6000604051905090565b600080fd5b600080fd5b6000819050919050565b6105ce816105bb565b81146105d957600080fd5b50565b6000813590506105eb816105c5565b92915050565b6000819050919050565b610604816105f1565b811461060f57600080fd5b50565b600081359050610621816105fb565b92915050565b6000806040838503121561063e5761063d6105b1565b5b600061064c858286016105dc565b925050602061065d85828601610612565b9150509250929050565b600080fd5b600080fd5b6000601f19601f8301169050919050565b7f4e487b7100000000000000000000000000000000000000000000000000000000600052604160045260246000fd5b6106ba82610671565b810181811067ffffffffffffffff821117156106d9576106d8610682565b5b80604052505050565b60006106ec6105a7565b90506106f882826106b1565b919050565b600067ffffffffffffffff82111561071857610717610682565b5b61072182610671565b9050602081019050919050565b82818337600083830152505050565b600061075061074b846106fd565b6106e2565b90508281526020810184848401111561076c5761076b61066c565b5b61077784828561072e565b509392505050565b600082601f83011261079457610793610667565b5b81356107a484826020860161073d565b91505092915050565b600080600080608085870312156107c7576107c66105b1565b5b60006107d5878288016105dc565b94505060206107e6878288016105dc565b93505060406107f787828801610612565b925050606085013567ffffffffffffffff811115610818576108176105b6565b5b6108248782880161077f565b91505092959194509250565b600073ffffffffffffffffffffffffffffffffffffffff82169050919050565b600061085b82610830565b9050919050565b61086b81610850565b82525050565b60006020820190506108866000830184610862565b92915050565b6000602082840312156108a2576108a16105b1565b5b60006108b0848285016105dc565b91505092915050565b6108c2816105bb565b82525050565b60008115159050919050565b6108dd816108c8565b82525050565b6108ec816105f1565b82525050565b600081519050919050565b600082825260208201905092915050565b60005b8381101561092c578082015181840152602081019050610911565b60008484015250505050565b6000610943826108f2565b61094d81856108fd565b935061095d81856020860161090e565b61096681610671565b840191505092915050565b600060e082019050610986600083018a610862565b61099360208301896108b9565b6109a060408301886108b9565b6109ad60608301876108b9565b6109ba60808301866108d4565b6109c760a08301856108e3565b81810360c08301526109d98184610938565b905098975050505050505050565b60006020820190506109fc60008301846108b9565b92915050565b7f416c726561647920736574746c65640000000000000000000000000000000000600082015250565b6000610a38600f836108fd565b9150610a4382610a02565b602082019050919050565b60006020820190508181036000830152610a6781610a2b565b9050919050565b7f4f6e6c79206f776e657220286f7261636c65292063616e207472696767657200600082015250565b6000610aa4601f836108fd565b9150610aaf82610a6e565b602082019050919050565b60006020820190508181036000830152610ad381610a97565b9050919050565b7f4e487b7100000000000000000000000000000000000000000000000000000000600052602260045260246000fd5b60006002820490506001821680610b2157607f821691505b602082108103610b3457610b33610ada565b5b50919050565b600081905092915050565b60008190508160005260206000209050919050565b60008154610b6781610b09565b610b718186610b3a565b94506001821660008114610b8c5760018114610ba157610bd4565b60ff1983168652811515820286019350610bd4565b610baa85610b45565b60005b83811015610bcc57815481890152600182019150602081019050610bad565b838801955050505b50505092915050565b6000610be98284610b5a565b915081905092915050565b7f4e487b7100000000000000000000000000000000000000000000000000000000600052601260045260246000fd5b7f4e487b7100000000000000000000000000000000000000000000000000000000600052601160045260246000fd5b6000610c5d826105bb565b9150610c68836105bb565b925082610c7857610c77610bf4565b5b828204905092915050565b7f5072656d69756d20746f6f206c6f770000000000000000000000000000000000600082015250565b6000610cb9600f836108fd565b9150610cc482610c83565b602082019050919050565b60006020820190508181036000830152610ce881610cac565b9050919050565b6000610cfa826105bb565b9150610d05836105bb565b9250828201905080821115610d1d57610d1c610c23565b5b92915050565b60008190508160005260206000209050919050565b60006020601f8301049050919050565b600082821b905092915050565b600060088302610d857fffffffffffffffffffffffffffffffffffffffffffffffffffffffffffffffff82610d48565b610d8f8683610d48565b95508019841693508086168417925050509392505050565b6000819050919050565b6000610dcc610dc7610dc2846105bb565b610da7565b6105bb565b9050919050565b6000819050919050565b610de683610db1565b610dfa610df282610dd3565b848454610d55565b825550505050565b600090565b610e0f610e02565b610e1a818484610ddd565b505050565b5b81811015610e3e57610e33600082610e07565b600181019050610e20565b5050565b601f821115610e8357610e5481610d23565b610e5d84610d38565b81016020851015610e6c578190505b610e80610e7885610d38565b830182610e1f565b50505b505050565b600082821c905092915050565b6000610ea660001984600802610e88565b1980831691505092915050565b6000610ebf8383610e95565b9150826002028217905092915050565b610ed8826108f2565b67ffffffffffffffff811115610ef157610ef0610682565b5b610efb8254610b09565b610f06828285610e42565b600060209050601f831160018114610f395760008415610f27578287015190505b610f318582610eb3565b865550610f99565b601f198416610f4786610d23565b60005b82811015610f6f57848901518255600182019150602085019450602081019050610f4a565b86831015610f8c5784890151610f88601f891682610e95565b8355505b6001600288020188555050505b505050505050565b6000610fac826105bb565b91507fffffffffffffffffffffffffffffffffffffffffffffffffffffffffffffffff8203610fde57610fdd610c23565b5b60018201905091905056fea264697066735822122060d4c476cdabf80da8c04f7742d2f24afafb55cddadbba74cc29aee5d28c4cd864736f6c634300081c0033",
  "linkReferences": {},
  "deployedLinkReferences": {}
}